:1000000033C000004CC000004AC0000048C00000DF
:1000100046C0000044C0000042C0000040C00000D4
:100020003EC000003CC000003AC00000B8C0000064
:1000300036C0000034C0000032C0000030C00000F4
:100040002EC000002CC000002AC0000028C0000004
:1000500026C0000024C0000022C0000020C0000014
:100060001EC000001CC0000011241FBECFEFD8E04E
:10007000DEBFCDBF11E0A0E0B1E0E4EEF4E002C0ED
:1000800005900D92AA30B107D9F721E0AAE0B1E0BE
:1000900001C01D92A233B207E1F7F0D121C2B0CF67
:1000A0000F931F93CF93DF938C0180910E0190915A
:1000B0000F01892B81F0EEE0F1E021E030E0822FAA
:1000C000E901A781B0852F5F3F4F3796AB2BB9F77A
:1000D000853021F415C0C0E0D0E080E0FE01EE0FD5
:1000E000FF1FEE0FFF1FEE0FFF1FEC1BFD0BE25F6C
:1000F000FE4F11830083738362835583448316828A
:10010000DF91CF911F910F91089527E0829FC00149
:100110001124FC01E25FFE4F1182108213821282D1
:1001200015821482168280E00895EF92FF921F9349
:10013000CF93DF93CEE0D1E010E08E81882371F081
:10014000E881F981309751F009958E8181508E8335
:100150008C819D81892B11F4812FD7DF1F5F27961A
:10016000153059F7DF91CF911F91FF90EF900895CF
:10017000CF93C0E08C2FC9DFCF5FC530D9F781E7BF
:1001800092E090938900809388008CE080938100B6
:1001900082E080936F00CF910895789408951F9224
:1001A0000F920FB60F9211242F933F938F939F932B
:1001B000AF93BF93EF93FF93EEE0F1E021E331E0E3
:1001C00080819181892B91F082819381009759F4EC
:1001D00086818F5F868384819581009739F00197AE
:1001E0009383828303C00197938382833796E217B8
:1001F000F30731F7FF91EF91BF91AF919F918F91ED
:100200003F912F910F900FBE0F901F90189523B123
:1002100030E0A90102C0559547958A95E2F7CA01D9
:1002200081709927089561110EC045B121E030E039
:10023000B90102C0660F771F8A95E2F7CB0180955E
:10024000842385B9089545B121E030E0B90102C0A9
:10025000660F771F8A95E2F7CB01842B85B9089545
:10026000CF93DF93D82FC8E060E081E0DCDF6D2F13
:10027000617080E0D8DFD69561E081E0D4DFC150C5
:1002800099F7DF91CF9108951F93CF93DF93209833
:10029000C0E0D0E010E060E081E0C5DF80E0B7DFE3
:1002A0000C2E02C0880F991F0A94E2F7182B61E008
:1002B00081E0B9DF2196C830D10569F7209A812FF6
:1002C000DF91CF911F9108951F93CF93DF9360E04B
:1002D00082E0A9DF82E4C4DF2098C0E0D0E010E033
:1002E000D3DF90E00C2E02C0880F991F0A94E2F72A
:1002F000182B2196C430D10599F7209A61E082E04D
:1003000092DF812FDF91CF911F910895CF93C82F56
:1003100060E082E088DF8C2FA3DF61E082E083DF92
:10032000CF910895CF9380E4F1DF60E082E07BDF3E
:1003300080EC96DFC0E180E093DFC150E1F761E03F
:1003400082E071DFCF9108958F929F92AF92BF921A
:10035000CF92DF92EF92FF920F931F93CF93DF9391
:10036000CDB7DEB728970FB6F894DEBF0FBECDBF6E
:1003700060910A0170910B0180910C0190910D0127
:100380009E012F5F3F4F79018E01075F1F4F69016B
:100390000F2EFAE08F2E912CA12CB12CF02DA5015F
:1003A00094017CD0D6016D936D01622F732F842F41
:1003B000952FA017B10799F780E4A8DF60E082E0ED
:1003C00032DF80EC4DDFD801EE918D01F0E0E0509E
:1003D000FF4F808145DF80E043DF0E151F0599F751
:1003E00061E082E020DF80910A0190910B01A091F1
:1003F0000C01B0910D010196A11DB11D80930A0160
:1004000090930B01A0930C01B0930D0128960FB6A9
:10041000F894DEBF0FBECDBFDF91CF911F910F913A
:10042000FF90EF90DF90CF90BF90AF909F908F9014
:100430000895CF9349DFC82F80FF11C010920A01A1
:1004400010920B0110920C0110920D0141E050E04E
:1004500060E070E084EA91E023DE80933101C1FF27
:100460000BC010920A0110920B0110920C01109215
:100470000D018091310149DECF9108958FEF84B94C
:1004800089E844DF4FDF74DE41E050E060E070E077
:1004900089E192E005DE81DE48DEFECFA1E21A2E80
:1004A000AA1BBB1BFD010DC0AA1FBB1FEE1FFF1F18
:1004B000A217B307E407F50720F0A21BB30BE40B68
:1004C000F50B661F771F881F991F1A9469F76095AF
:1004D0007095809590959B01AC01BD01CF01089569
:0404E000F894FFCFBE
:0A04E4003F065B4F666D7D077F6FDA
:00000001FF
